{
  "contractName": "Rack",
  "abi": [
    {
      "inputs": [
        {
          "internalType": "address",
          "name": "_owner",
          "type": "address"
        },
        {
          "internalType": "string",
          "name": "_name",
          "type": "string"
        }
      ],
      "stateMutability": "nonpayable",
      "type": "constructor"
    },
    {
      "anonymous": false,
      "inputs": [
        {
          "indexed": false,
          "internalType": "string",
          "name": "_brand",
          "type": "string"
        },
        {
          "indexed": false,
          "internalType": "string",
          "name": "_model",
          "type": "string"
        },
        {
          "indexed": false,
          "internalType": "string",
          "name": "_serial",
          "type": "string"
        },
        {
          "indexed": false,
          "internalType": "enum Rack.DeviceState",
          "name": "",
          "type": "uint8"
        }
      ],
      "name": "DeviceAdded",
      "type": "event"
    },
    {
      "anonymous": false,
      "inputs": [
        {
          "indexed": true,
          "internalType": "address",
          "name": "previousOwner",
          "type": "address"
        },
        {
          "indexed": true,
          "internalType": "address",
          "name": "newOwner",
          "type": "address"
        }
      ],
      "name": "OwnershipTransferred",
      "type": "event"
    },
    {
      "stateMutability": "nonpayable",
      "type": "fallback"
    },
    {
      "inputs": [],
      "name": "owner",
      "outputs": [
        {
          "internalType": "address",
          "name": "",
          "type": "address"
        }
      ],
      "stateMutability": "view",
      "type": "function"
    },
    {
      "inputs": [],
      "name": "renounceOwnership",
      "outputs": [],
      "stateMutability": "nonpayable",
      "type": "function"
    },
    {
      "inputs": [
        {
          "internalType": "address",
          "name": "newOwner",
          "type": "address"
        }
      ],
      "name": "transferOwnership",
      "outputs": [],
      "stateMutability": "nonpayable",
      "type": "function"
    },
    {
      "stateMutability": "payable",
      "type": "receive"
    },
    {
      "inputs": [
        {
          "internalType": "bool",
          "name": "_state",
          "type": "bool"
        }
      ],
      "name": "setWriteableState",
      "outputs": [],
      "stateMutability": "nonpayable",
      "type": "function"
    },
    {
      "inputs": [
        {
          "internalType": "string",
          "name": "_brand",
          "type": "string"
        },
        {
          "internalType": "string",
          "name": "_model",
          "type": "string"
        },
        {
          "internalType": "string",
          "name": "_serial",
          "type": "string"
        },
        {
          "internalType": "string",
          "name": "_mac",
          "type": "string"
        },
        {
          "internalType": "enum Rack.DeviceState",
          "name": "_state",
          "type": "uint8"
        }
      ],
      "name": "addDevice",
      "outputs": [],
      "stateMutability": "nonpayable",
      "type": "function"
    },
    {
      "inputs": [
        {
          "internalType": "uint256",
          "name": "_id",
          "type": "uint256"
        },
        {
          "internalType": "enum Rack.DeviceState",
          "name": "_state",
          "type": "uint8"
        }
      ],
      "name": "setDeviceState",
      "outputs": [],
      "stateMutability": "nonpayable",
      "type": "function"
    },
    {
      "inputs": [
        {
          "internalType": "string",
          "name": "_name",
          "type": "string"
        },
        {
          "internalType": "string",
          "name": "_report",
          "type": "string"
        }
      ],
      "name": "addReport",
      "outputs": [],
      "stateMutability": "nonpayable",
      "type": "function"
    },
    {
      "inputs": [
        {
          "internalType": "uint256",
          "name": "_num",
          "type": "uint256"
        },
        {
          "internalType": "uint256",
          "name": "_of",
          "type": "uint256"
        },
        {
          "internalType": "string",
          "name": "_base64",
          "type": "string"
        }
      ],
      "name": "addDocument",
      "outputs": [],
      "stateMutability": "nonpayable",
      "type": "function"
    },
    {
      "inputs": [],
      "name": "documentSize",
      "outputs": [
        {
          "internalType": "uint256",
          "name": "_sizeOfDocument",
          "type": "uint256"
        }
      ],
      "stateMutability": "view",
      "type": "function"
    },
    {
      "inputs": [
        {
          "internalType": "uint256",
          "name": "_index",
          "type": "uint256"
        }
      ],
      "name": "seeDocument",
      "outputs": [
        {
          "internalType": "string",
          "name": "_document",
          "type": "string"
        }
      ],
      "stateMutability": "view",
      "type": "function"
    },
    {
      "inputs": [],
      "name": "howManyDevices",
      "outputs": [
        {
          "internalType": "uint256",
          "name": "_devices",
          "type": "uint256"
        }
      ],
      "stateMutability": "view",
      "type": "function"
    },
    {
      "inputs": [
        {
          "internalType": "uint256",
          "name": "_id",
          "type": "uint256"
        }
      ],
      "name": "seeDevice",
      "outputs": [
        {
          "internalType": "string",
          "name": "_brand",
          "type": "string"
        },
        {
          "internalType": "string",
          "name": "_model",
          "type": "string"
        },
        {
          "internalType": "string",
          "name": "_serial",
          "type": "string"
        },
        {
          "internalType": "string",
          "name": "_mac",
          "type": "string"
        },
        {
          "internalType": "enum Rack.DeviceState",
          "name": "_state",
          "type": "uint8"
        }
      ],
      "stateMutability": "view",
      "type": "function"
    },
    {
      "inputs": [],
      "name": "seeDeviceLoop",
      "outputs": [
        {
          "internalType": "string[]",
          "name": "_brand",
          "type": "string[]"
        },
        {
          "internalType": "string[]",
          "name": "_model",
          "type": "string[]"
        },
        {
          "internalType": "string[]",
          "name": "_serial",
          "type": "string[]"
        },
        {
          "internalType": "string[]",
          "name": "_mac",
          "type": "string[]"
        },
        {
          "internalType": "enum Rack.DeviceState",
          "name": "_state",
          "type": "uint8"
        }
      ],
      "stateMutability": "view",
      "type": "function"
    },
    {
      "inputs": [],
      "name": "howManyReports",
      "outputs": [
        {
          "internalType": "uint256",
          "name": "_reports",
          "type": "uint256"
        }
      ],
      "stateMutability": "view",
      "type": "function"
    },
    {
      "inputs": [
        {
          "internalType": "uint256",
          "name": "_id",
          "type": "uint256"
        }
      ],
      "name": "seeReport",
      "outputs": [
        {
          "internalType": "uint256",
          "name": "_time",
          "type": "uint256"
        },
        {
          "internalType": "string",
          "name": "_name",
          "type": "string"
        },
        {
          "internalType": "string",
          "name": "_report",
          "type": "string"
        }
      ],
      "stateMutability": "view",
      "type": "function"
    },
    {
      "inputs": [],
      "name": "seeReportLoop",
      "outputs": [
        {
          "internalType": "uint256[]",
          "name": "_time",
          "type": "uint256[]"
        },
        {
          "internalType": "string[]",
          "name": "_name",
          "type": "string[]"
        },
        {
          "internalType": "string[]",
          "name": "_report",
          "type": "string[]"
        }
      ],
      "stateMutability": "view",
      "type": "function"
    }
  ],
  "bytecode": "0x60806040523480156200001157600080fd5b506040516200307038038062003070833981810160405281019062000037919062000487565b6000620000496200015260201b60201c565b9050806000806101000a81548173ffffffffffffffffffffffffffffffffffffffff021916908373ffffffffffffffffffffffffffffffffffffffff1602179055508073ffffffffffffffffffffffffffffffffffffffff16600073ffffffffffffffffffffffffffffffffffffffff167f8be0079c531659141344cd1fd0a4f28419497f9722a3daafe3b4186f6b6457e060405160405180910390a35080600160000190805190602001906200010292919062000342565b5062000114826200015a60201b60201c565b6001600b60006101000a81548160ff0219169083151502179055506000600b60016101000a81548160ff0219169083151502179055505050620007da565b600033905090565b6200016a6200015260201b60201c565b73ffffffffffffffffffffffffffffffffffffffff16620001906200031960201b60201c565b73ffffffffffffffffffffffffffffffffffffffff1614620001e9576040517f08c379a0000000000000000000000000000000000000000000000000000000008152600401620001e0906200055d565b60405180910390fd5b600073ffffffffffffffffffffffffffffffffffffffff168173ffffffffffffffffffffffffffffffffffffffff1614156200025c576040517f08c379a000000000000000000000000000000000000000000000000000000000815260040162000253906200053b565b60405180910390fd5b8073ffffffffffffffffffffffffffffffffffffffff1660008054906101000a900473ffffffffffffffffffffffffffffffffffffffff1673ffffffffffffffffffffffffffffffffffffffff167f8be0079c531659141344cd1fd0a4f28419497f9722a3daafe3b4186f6b6457e060405160405180910390a3806000806101000a81548173ffffffffffffffffffffffffffffffffffffffff021916908373ffffffffffffffffffffffffffffffffffffffff16021790555050565b60008060009054906101000a900473ffffffffffffffffffffffffffffffffffffffff16905090565b828054620003509062000659565b90600052602060002090601f016020900481019282620003745760008555620003c0565b82601f106200038f57805160ff1916838001178555620003c0565b82800160010185558215620003c0579182015b82811115620003bf578251825591602001919060010190620003a2565b5b509050620003cf9190620003d3565b5090565b5b80821115620003ee576000816000905550600101620003d4565b5090565b6000620004096200040384620005a8565b6200057f565b90508281526020810184848401111562000428576200042762000728565b5b6200043584828562000623565b509392505050565b6000815190506200044e81620007c0565b92915050565b600082601f8301126200046c576200046b62000723565b5b81516200047e848260208601620003f2565b91505092915050565b60008060408385031215620004a157620004a062000732565b5b6000620004b1858286016200043d565b925050602083015167ffffffffffffffff811115620004d557620004d46200072d565b5b620004e38582860162000454565b9150509250929050565b6000620004fc602683620005de565b9150620005098262000748565b604082019050919050565b600062000523602083620005de565b9150620005308262000797565b602082019050919050565b600060208201905081810360008301526200055681620004ed565b9050919050565b60006020820190508181036000830152620005788162000514565b9050919050565b60006200058b6200059e565b90506200059982826200068f565b919050565b6000604051905090565b600067ffffffffffffffff821115620005c657620005c5620006f4565b5b620005d18262000737565b9050602081019050919050565b600082825260208201905092915050565b6000620005fc8262000603565b9050919050565b600073ffffffffffffffffffffffffffffffffffffffff82169050919050565b60005b838110156200064357808201518184015260208101905062000626565b8381111562000653576000848401525b50505050565b600060028204905060018216806200067257607f821691505b60208210811415620006895762000688620006c5565b5b50919050565b6200069a8262000737565b810181811067ffffffffffffffff82111715620006bc57620006bb620006f4565b5b80604052505050565b7f4e487b7100000000000000000000000000000000000000000000000000000000600052602260045260246000fd5b7f4e487b7100000000000000000000000000000000000000000000000000000000600052604160045260246000fd5b600080fd5b600080fd5b600080fd5b600080fd5b6000601f19601f8301169050919050565b7f4f776e61626c653a206e6577206f776e657220697320746865207a65726f206160008201527f6464726573730000000000000000000000000000000000000000000000000000602082015250565b7f4f776e61626c653a2063616c6c6572206973206e6f7420746865206f776e6572600082015250565b620007cb81620005ef565b8114620007d757600080fd5b50565b61288680620007ea6000396000f3fe6080604052600436106100f75760003560e01c80638da5cb5b1161008a578063da5652e111610059578063da5652e11461038b578063f1bf7250146103b8578063f2fde38b146103e3578063fa73ba501461040c57610154565b80638da5cb5b146102cd578063a321b63b146102f8578063b102069f14610337578063c888c1bb1461036257610154565b806378384e8b116100c657806378384e8b146102135780637a3e00661461023e5780638842ec22146102675780638b343e341461029057610154565b806316800e5b146101635780632c3d11ed14610192578063494a179e146101d3578063715018a6146101fc57610154565b366101545760011515600b60019054906101000a900460ff16151514610152576040517f08c379a0000000000000000000000000000000000000000000000000000000008152600401610149906122b0565b60405180910390fd5b005b34801561016057600080fd5b50005b34801561016f57600080fd5b50610178610435565b60405161018995949392919061206a565b60405180910390f35b34801561019e57600080fd5b506101b960048036038101906101b49190611c74565b6108e6565b6040516101ca959493929190612147565b60405180910390f35b3480156101df57600080fd5b506101fa60048036038101906101f59190611b89565b610bfb565b005b34801561020857600080fd5b50610211610e1d565b005b34801561021f57600080fd5b50610228610f57565b60405161023591906122d0565b60405180910390f35b34801561024a57600080fd5b5061026560048036038101906102609190611b11565b610f61565b005b34801561027357600080fd5b5061028e60048036038101906102899190611ce1565b611053565b005b34801561029c57600080fd5b506102b760048036038101906102b29190611c74565b6110e3565b6040516102c49190612125565b60405180910390f35b3480156102d957600080fd5b506102e261118b565b6040516102ef919061204f565b60405180910390f35b34801561030457600080fd5b5061031f600480360381019061031a9190611c74565b6111b4565b60405161032e939291906122eb565b60405180910390f35b34801561034357600080fd5b5061034c61136e565b60405161035991906122d0565b60405180910390f35b34801561036e57600080fd5b5061038960048036038101906103849190611ca1565b61137b565b005b34801561039757600080fd5b506103a0611415565b6040516103af939291906120d9565b60405180910390f35b3480156103c457600080fd5b506103cd6116fc565b6040516103da91906122d0565b60405180910390f35b3480156103ef57600080fd5b5061040a60048036038101906104059190611ab7565b611706565b005b34801561041857600080fd5b50610433600480360381019061042e9190611ae4565b6118af565b005b606080606080600080600854905060008167ffffffffffffffff81111561045f5761045e612651565b5b60405190808252806020026020018201604052801561049257816020015b606081526020019060019003908161047d5790505b50905060008267ffffffffffffffff8111156104b1576104b0612651565b5b6040519080825280602002602001820160405280156104e457816020015b60608152602001906001900390816104cf5790505b50905060008367ffffffffffffffff81111561050357610502612651565b5b60405190808252806020026020018201604052801561053657816020015b60608152602001906001900390816105215790505b50905060008467ffffffffffffffff81111561055557610554612651565b5b60405190808252806020026020018201604052801561058857816020015b60608152602001906001900390816105735790505b50905060005b858110156108a55760018001600082815260200190815260200160002060000180546105b9906124e9565b80601f01602080910402602001604051908101604052809291908181526020018280546105e5906124e9565b80156106325780601f1061060757610100808354040283529160200191610632565b820191906000526020600020905b81548152906001019060200180831161061557829003601f168201915b505050505085828151811061064a57610649612622565b5b60200260200101819052506001800160008281526020019081526020016000206001018054610678906124e9565b80601f01602080910402602001604051908101604052809291908181526020018280546106a4906124e9565b80156106f15780601f106106c6576101008083540402835291602001916106f1565b820191906000526020600020905b8154815290600101906020018083116106d457829003601f168201915b505050505084828151811061070957610708612622565b5b60200260200101819052506001800160008281526020019081526020016000206002018054610737906124e9565b80601f0160208091040260200160405190810160405280929190818152602001828054610763906124e9565b80156107b05780601f10610785576101008083540402835291602001916107b0565b820191906000526020600020905b81548152906001019060200180831161079357829003601f168201915b50505050508382815181106107c8576107c7612622565b5b602002602001018190525060018001600082815260200190815260200160002060030180546107f6906124e9565b80601f0160208091040260200160405190810160405280929190818152602001828054610822906124e9565b801561086f5780601f106108445761010080835404028352916020019161086f565b820191906000526020600020905b81548152906001019060200180831161085257829003601f168201915b505050505082828151811061088757610886612622565b5b6020026020010181905250808061089d9061254c565b91505061058e565b508383838360018001600080815260200190815260200160002060040160009054906101000a900460ff169950995099509950995050505050509091929394565b60608060608060006008548610610932576040517f08c379a000000000000000000000000000000000000000000000000000000000815260040161092990612290565b60405180910390fd5b6001800160008781526020019081526020016000206000016001800160008881526020019081526020016000206001016001800160008981526020019081526020016000206002016001800160008a81526020019081526020016000206003016001800160008b815260200190815260200160002060040160009054906101000a900460ff168480546109c4906124e9565b80601f01602080910402602001604051908101604052809291908181526020018280546109f0906124e9565b8015610a3d5780601f10610a1257610100808354040283529160200191610a3d565b820191906000526020600020905b815481529060010190602001808311610a2057829003601f168201915b50505050509450838054610a50906124e9565b80601f0160208091040260200160405190810160405280929190818152602001828054610a7c906124e9565b8015610ac95780601f10610a9e57610100808354040283529160200191610ac9565b820191906000526020600020905b815481529060010190602001808311610aac57829003601f168201915b50505050509350828054610adc906124e9565b80601f0160208091040260200160405190810160405280929190818152602001828054610b08906124e9565b8015610b555780601f10610b2a57610100808354040283529160200191610b55565b820191906000526020600020905b815481529060010190602001808311610b3857829003601f168201915b50505050509250818054610b68906124e9565b80601f0160208091040260200160405190810160405280929190818152602001828054610b94906124e9565b8015610be15780601f10610bb657610100808354040283529160200191610be1565b820191906000526020600020905b815481529060010190602001808311610bc457829003601f168201915b505050505091509450945094509450945091939590929450565b60011515600b60009054906101000a900460ff16151514610c51576040517f08c379a0000000000000000000000000000000000000000000000000000000008152600401610c4890612210565b60405180910390fd5b8460018001600060085481526020019081526020016000206000019080519060200190610c7f929190611950565b508360018001600060085481526020019081526020016000206001019080519060200190610cae929190611950565b508260018001600060085481526020019081526020016000206002019080519060200190610cdd929190611950565b508160018001600060085481526020019081526020016000206003019080519060200190610d0c929190611950565b5080600180016000600854815260200190815260200160002060040160006101000a81548160ff02191690836004811115610d4a57610d496125c4565b5b02179055507f3c3118b1408afed41e4f552045051f996bfc428d0bee9a668dbba117ba9ed925600180016000600854815260200190815260200160002060000160018001600060085481526020019081526020016000206001016001800160006008548152602001908152602001600020600201600180016000600854815260200190815260200160002060040160009054906101000a900460ff16604051610df694939291906121b6565b60405180910390a160086000815480929190610e119061254c565b91905055505050505050565b610e25611948565b73ffffffffffffffffffffffffffffffffffffffff16610e4361118b565b73ffffffffffffffffffffffffffffffffffffffff1614610e99576040517f08c379a0000000000000000000000000000000000000000000000000000000008152600401610e9090612270565b60405180910390fd5b600073ffffffffffffffffffffffffffffffffffffffff1660008054906101000a900473ffffffffffffffffffffffffffffffffffffffff1673ffffffffffffffffffffffffffffffffffffffff167f8be0079c531659141344cd1fd0a4f28419497f9722a3daafe3b4186f6b6457e060405160405180910390a360008060006101000a81548173ffffffffffffffffffffffffffffffffffffffff021916908373ffffffffffffffffffffffffffffffffffffffff160217905550565b6000600954905090565b60011515600b60009054906101000a900460ff16151514610fb7576040517f08c379a0000000000000000000000000000000000000000000000000000000008152600401610fae90612210565b60405180910390fd5b4260016002016000600954815260200190815260200160002060000181905550816001600201600060095481526020019081526020016000206001019080519060200190611006929190611950565b50806001600201600060095481526020019081526020016000206002019080519060200190611036929190611950565b506009600081548092919061104a9061254c565b91905055505050565b60011515600b60009054906101000a900460ff161515146110a9576040517f08c379a00000000000000000000000000000000000000000000000000000000081526004016110a090612210565b60405180910390fd5b806001600501600085815260200190815260200160002090805190602001906110d3929190611950565b5081600160060181905550505050565b6060600160050160008381526020019081526020016000208054611106906124e9565b80601f0160208091040260200160405190810160405280929190818152602001828054611132906124e9565b801561117f5780601f106111545761010080835404028352916020019161117f565b820191906000526020600020905b81548152906001019060200180831161116257829003601f168201915b50505050509050919050565b60008060009054906101000a900473ffffffffffffffffffffffffffffffffffffffff16905090565b600060608060095484106111fd576040517f08c379a00000000000000000000000000000000000000000000000000000000081526004016111f490612250565b60405180910390fd5b60016002016000858152602001908152602001600020600001546001600201600086815260200190815260200160002060010160016002016000878152602001908152602001600020600201818054611255906124e9565b80601f0160208091040260200160405190810160405280929190818152602001828054611281906124e9565b80156112ce5780601f106112a3576101008083540402835291602001916112ce565b820191906000526020600020905b8154815290600101906020018083116112b157829003601f168201915b505050505091508080546112e1906124e9565b80601f016020809104026020016040519081016040528092919081815260200182805461130d906124e9565b801561135a5780601f1061132f5761010080835404028352916020019161135a565b820191906000526020600020905b81548152906001019060200180831161133d57829003601f168201915b505050505090509250925092509193909250565b6000600160060154905090565b60011515600b60009054906101000a900460ff161515146113d1576040517f08c379a00000000000000000000000000000000000000000000000000000000081526004016113c890612210565b60405180910390fd5b8060018001600084815260200190815260200160002060040160006101000a81548160ff0219169083600481111561140c5761140b6125c4565b5b02179055505050565b60608060606000600954905060008167ffffffffffffffff81111561143d5761143c612651565b5b60405190808252806020026020018201604052801561146b5781602001602082028036833780820191505090505b50905060008267ffffffffffffffff81111561148a57611489612651565b5b6040519080825280602002602001820160405280156114bd57816020015b60608152602001906001900390816114a85790505b50905060008367ffffffffffffffff8111156114dc576114db612651565b5b60405190808252806020026020018201604052801561150f57816020015b60608152602001906001900390816114fa5790505b50905060005b848110156116e957600160020160008281526020019081526020016000206000015484828151811061154a57611549612622565b5b60200260200101818152505060016002016000828152602001908152602001600020600101805461157a906124e9565b80601f01602080910402602001604051908101604052809291908181526020018280546115a6906124e9565b80156115f35780601f106115c8576101008083540402835291602001916115f3565b820191906000526020600020905b8154815290600101906020018083116115d657829003601f168201915b505050505083828151811061160b5761160a612622565b5b602002602001018190525060016002016000828152602001908152602001600020600201805461163a906124e9565b80601f0160208091040260200160405190810160405280929190818152602001828054611666906124e9565b80156116b35780601f10611688576101008083540402835291602001916116b3565b820191906000526020600020905b81548152906001019060200180831161169657829003601f168201915b50505050508282815181106116cb576116ca612622565b5b602002602001018190525080806116e19061254c565b915050611515565b5082828296509650965050505050909192565b6000600854905090565b61170e611948565b73ffffffffffffffffffffffffffffffffffffffff1661172c61118b565b73ffffffffffffffffffffffffffffffffffffffff1614611782576040517f08c379a000000000000000000000000000000000000000000000000000000000815260040161177990612270565b60405180910390fd5b600073ffffffffffffffffffffffffffffffffffffffff168173ffffffffffffffffffffffffffffffffffffffff1614156117f2576040517f08c379a00000000000000000000000000000000000000000000000000000000081526004016117e990612230565b60405180910390fd5b8073ffffffffffffffffffffffffffffffffffffffff1660008054906101000a900473ffffffffffffffffffffffffffffffffffffffff1673ffffffffffffffffffffffffffffffffffffffff167f8be0079c531659141344cd1fd0a4f28419497f9722a3daafe3b4186f6b6457e060405160405180910390a3806000806101000a81548173ffffffffffffffffffffffffffffffffffffffff021916908373ffffffffffffffffffffffffffffffffffffffff16021790555050565b6118b7611948565b73ffffffffffffffffffffffffffffffffffffffff166118d561118b565b73ffffffffffffffffffffffffffffffffffffffff161461192b576040517f08c379a000000000000000000000000000000000000000000000000000000000815260040161192290612270565b60405180910390fd5b80600b60006101000a81548160ff02191690831515021790555050565b600033905090565b82805461195c906124e9565b90600052602060002090601f01602090048101928261197e57600085556119c5565b82601f1061199757805160ff19168380011785556119c5565b828001600101855582156119c5579182015b828111156119c45782518255916020019190600101906119a9565b5b5090506119d291906119d6565b5090565b5b808211156119ef5760008160009055506001016119d7565b5090565b6000611a06611a0184612355565b612330565b905082815260208101848484011115611a2257611a21612685565b5b611a2d8482856124a7565b509392505050565b600081359050611a44816127fb565b92915050565b600081359050611a5981612812565b92915050565b600081359050611a6e81612829565b92915050565b600082601f830112611a8957611a88612680565b5b8135611a998482602086016119f3565b91505092915050565b600081359050611ab181612839565b92915050565b600060208284031215611acd57611acc61268f565b5b6000611adb84828501611a35565b91505092915050565b600060208284031215611afa57611af961268f565b5b6000611b0884828501611a4a565b91505092915050565b60008060408385031215611b2857611b2761268f565b5b600083013567ffffffffffffffff811115611b4657611b4561268a565b5b611b5285828601611a74565b925050602083013567ffffffffffffffff811115611b7357611b7261268a565b5b611b7f85828601611a74565b9150509250929050565b600080600080600060a08688031215611ba557611ba461268f565b5b600086013567ffffffffffffffff811115611bc357611bc261268a565b5b611bcf88828901611a74565b955050602086013567ffffffffffffffff811115611bf057611bef61268a565b5b611bfc88828901611a74565b945050604086013567ffffffffffffffff811115611c1d57611c1c61268a565b5b611c2988828901611a74565b935050606086013567ffffffffffffffff811115611c4a57611c4961268a565b5b611c5688828901611a74565b9250506080611c6788828901611a5f565b9150509295509295909350565b600060208284031215611c8a57611c8961268f565b5b6000611c9884828501611aa2565b91505092915050565b60008060408385031215611cb857611cb761268f565b5b6000611cc685828601611aa2565b9250506020611cd785828601611a5f565b9150509250929050565b600080600060608486031215611cfa57611cf961268f565b5b6000611d0886828701611aa2565b9350506020611d1986828701611aa2565b925050604084013567ffffffffffffffff811115611d3a57611d3961268a565b5b611d4686828701611a74565b9150509250925092565b6000611d5c8383611e6d565b905092915050565b6000611d708383612031565b60208301905092915050565b611d858161243a565b82525050565b6000611d96826123bb565b611da081856123f6565b935083602082028501611db285612386565b8060005b85811015611dee5784840389528151611dcf8582611d50565b9450611dda836123dc565b925060208a01995050600181019050611db6565b50829750879550505050505092915050565b6000611e0b826123c6565b611e158185612407565b9350611e2083612396565b8060005b83811015611e51578151611e388882611d64565b9750611e43836123e9565b925050600181019050611e24565b5085935050505092915050565b611e6781612495565b82525050565b6000611e78826123d1565b611e828185612418565b9350611e928185602086016124b6565b611e9b81612694565b840191505092915050565b6000611eb1826123d1565b611ebb8185612429565b9350611ecb8185602086016124b6565b611ed481612694565b840191505092915050565b60008154611eec816124e9565b611ef68186612429565b94506001821660008114611f115760018114611f2357611f56565b60ff1983168652602086019350611f56565b611f2c856123a6565b60005b83811015611f4e57815481890152600182019150602081019050611f2f565b808801955050505b50505092915050565b6000611f6c600983612429565b9150611f77826126a5565b602082019050919050565b6000611f8f602683612429565b9150611f9a826126ce565b604082019050919050565b6000611fb2601283612429565b9150611fbd8261271d565b602082019050919050565b6000611fd5602083612429565b9150611fe082612746565b602082019050919050565b6000611ff8601283612429565b91506120038261276f565b602082019050919050565b600061201b602383612429565b915061202682612798565b604082019050919050565b61203a8161248b565b82525050565b6120498161248b565b82525050565b60006020820190506120646000830184611d7c565b92915050565b600060a08201905081810360008301526120848188611d8b565b905081810360208301526120988187611d8b565b905081810360408301526120ac8186611d8b565b905081810360608301526120c08185611d8b565b90506120cf6080830184611e5e565b9695505050505050565b600060608201905081810360008301526120f38186611e00565b905081810360208301526121078185611d8b565b9050818103604083015261211b8184611d8b565b9050949350505050565b6000602082019050818103600083015261213f8184611ea6565b905092915050565b600060a08201905081810360008301526121618188611ea6565b905081810360208301526121758187611ea6565b905081810360408301526121898186611ea6565b9050818103606083015261219d8185611ea6565b90506121ac6080830184611e5e565b9695505050505050565b600060808201905081810360008301526121d08187611edf565b905081810360208301526121e48186611edf565b905081810360408301526121f88185611edf565b90506122076060830184611e5e565b95945050505050565b6000602082019050818103600083015261222981611f5f565b9050919050565b6000602082019050818103600083015261224981611f82565b9050919050565b6000602082019050818103600083015261226981611fa5565b9050919050565b6000602082019050818103600083015261228981611fc8565b9050919050565b600060208201905081810360008301526122a981611feb565b9050919050565b600060208201905081810360008301526122c98161200e565b9050919050565b60006020820190506122e56000830184612040565b92915050565b60006060820190506123006000830186612040565b81810360208301526123128185611ea6565b905081810360408301526123268184611ea6565b9050949350505050565b600061233a61234b565b9050612346828261251b565b919050565b6000604051905090565b600067ffffffffffffffff8211156123705761236f612651565b5b61237982612694565b9050602081019050919050565b6000819050602082019050919050565b6000819050602082019050919050565b60008190508160005260206000209050919050565b600081519050919050565b600081519050919050565b600081519050919050565b6000602082019050919050565b6000602082019050919050565b600082825260208201905092915050565b600082825260208201905092915050565b600082825260208201905092915050565b600082825260208201905092915050565b60006124458261246b565b9050919050565b60008115159050919050565b6000819050612466826127e7565b919050565b600073ffffffffffffffffffffffffffffffffffffffff82169050919050565b6000819050919050565b60006124a082612458565b9050919050565b82818337600083830152505050565b60005b838110156124d45780820151818401526020810190506124b9565b838111156124e3576000848401525b50505050565b6000600282049050600182168061250157607f821691505b60208210811415612515576125146125f3565b5b50919050565b61252482612694565b810181811067ffffffffffffffff8211171561254357612542612651565b5b80604052505050565b60006125578261248b565b91507fffffffffffffffffffffffffffffffffffffffffffffffffffffffffffffffff82141561258a57612589612595565b5b600182019050919050565b7f4e487b7100000000000000000000000000000000000000000000000000000000600052601160045260246000fd5b7f4e487b7100000000000000000000000000000000000000000000000000000000600052602160045260246000fd5b7f4e487b7100000000000000000000000000000000000000000000000000000000600052602260045260246000fd5b7f4e487b7100000000000000000000000000000000000000000000000000000000600052603260045260246000fd5b7f4e487b7100000000000000000000000000000000000000000000000000000000600052604160045260246000fd5b600080fd5b600080fd5b600080fd5b600080fd5b6000601f19601f8301169050919050565b7f52656164206f6e6c790000000000000000000000000000000000000000000000600082015250565b7f4f776e61626c653a206e6577206f776e657220697320746865207a65726f206160008201527f6464726573730000000000000000000000000000000000000000000000000000602082015250565b7f4e6f7420612076616c6964207265706f72740000000000000000000000000000600082015250565b7f4f776e61626c653a2063616c6c6572206973206e6f7420746865206f776e6572600082015250565b7f4e6f7420612076616c6964206465766963650000000000000000000000000000600082015250565b7f446f206e6f742073656e642066756e647320746f207468697320636f6e74726160008201527f6374210000000000000000000000000000000000000000000000000000000000602082015250565b600581106127f8576127f76125c4565b5b50565b6128048161243a565b811461280f57600080fd5b50565b61281b8161244c565b811461282657600080fd5b50565b6005811061283657600080fd5b50565b6128428161248b565b811461284d57600080fd5b5056fea2646970667358221220ca251c60e15036a12e8138f13dd54825b9bb1aea1eafbd51e2e1730de8b5806564736f6c63430008050033",
  "immutableReferences": {},
  "source": "//SPDX-License-Identifier: MIT\r\n\r\npragma solidity >=0.4.22 <0.9.0;\r\n\r\nimport \"./Ownable.sol\";\r\n\r\ncontract Rack is Ownable{\r\n\r\n\r\nstruct S_Rack{\r\n        string _space;\r\n        mapping(uint => S_Item) _device;\r\n        mapping(uint => S_Report) _report;\r\n        uint _deviceIndex;\r\n        uint _reportIndex;\r\n        mapping(uint => string) _document;\r\n        uint _sizeOfDocument;\r\n    }\r\n    \r\nstruct S_Item{\r\n        string _brand;\r\n        string _model;\r\n        string _serial;\r\n        string _mac;\r\n        DeviceState _state;\r\n}\r\n\r\nstruct S_Report{\r\n        uint _date;\r\n        string _name;\r\n        string _details;\r\n}\r\n    enum DeviceState{Failed, Ok, Repairing, Loan, Removed}\r\n    event DeviceAdded(string _brand, string _model, string _serial, DeviceState);\r\n    \r\n    S_Rack rack;\r\n    uint deviceIndex;\r\n    uint reportIndex;\r\n    uint documentIndex;\r\n    bool writeable;\r\n    bool isPayable;\r\n    \r\n    // Runs on creation\r\n    constructor(address _owner, string memory _name){\r\n        rack._space = _name;\r\n        transferOwnership(_owner);\r\n        writeable = true;\r\n        isPayable = false;\r\n    }\r\n\r\n    function setWriteableState(bool _state) public onlyOwner{\r\n        writeable = _state;\r\n    }\r\n    \r\n    // Add a new device to system rack\r\n    function addDevice(string memory _brand, string memory _model, string memory _serial, string memory _mac, DeviceState _state) public{\r\n        require(writeable == true,'Read only');\r\n        rack._device[deviceIndex]._brand = _brand;\r\n        rack._device[deviceIndex]._model = _model;\r\n        rack._device[deviceIndex]._serial = _serial;\r\n        rack._device[deviceIndex]._mac = _mac;\r\n        rack._device[deviceIndex]._state = _state;\r\n        emit DeviceAdded(rack._device[deviceIndex]._brand, rack._device[deviceIndex]._model, rack._device[deviceIndex]._serial, rack._device[deviceIndex]._state);\r\n        deviceIndex ++ ;\r\n    }\r\n    \r\n    // Set device state of device 0 = \"Failed\" , 1 = \"Ok\" , 2 = \"Repairing\" , 3 = \"Loan\" , 4 = \"Removed\"\r\n    function setDeviceState(uint _id, DeviceState _state) public{\r\n        require(writeable == true,'Read only');\r\n        rack._device[_id]._state = _state;\r\n    }\r\n    \r\n    // Add serivce report to system rack\r\n    function addReport(string memory _name, string memory _report) public{\r\n        require(writeable == true,'Read only');\r\n        rack._report[reportIndex]._date = block.timestamp;\r\n        rack._report[reportIndex]._name = _name;\r\n        rack._report[reportIndex]._details = _report;\r\n        reportIndex ++;\r\n    }\r\n\r\n    function addDocument(uint _num, uint _of, string memory _base64) public{\r\n        require(writeable == true,'Read only');\r\n        rack._document[_num]= _base64;\r\n        rack._sizeOfDocument = _of;\r\n        //documentIndex ++;\r\n    }\r\n\r\n    function documentSize() public view returns(uint _sizeOfDocument){\r\n        return rack._sizeOfDocument;\r\n    }\r\n\r\n    function seeDocument(uint _index) public view returns(string memory _document){\r\n        return rack._document[_index];\r\n    }\r\n    \r\n    // Returns number of device to run for loop\r\n    function howManyDevices() public view returns(uint _devices){\r\n        return deviceIndex;\r\n    }\r\n    \r\n    // Returns data for device\r\n    function seeDevice(uint _id) public view returns(string memory _brand, string memory _model, string memory _serial, string memory _mac, DeviceState _state){\r\n        require(_id < deviceIndex, \"Not a valid device\");\r\n        return(rack._device[_id]._brand, rack._device[_id]._model, rack._device[_id]._serial, rack._device[_id]._mac, rack._device[_id]._state);\r\n    }\r\n    function seeDeviceLoop() public view returns(string[] memory _brand, string[] memory _model, string[] memory _serial, string[] memory _mac, DeviceState _state){\r\n        uint _index = deviceIndex;\r\n        string[] memory _localBrand = new string[](_index);\r\n        string[] memory _localModel = new string[](_index);\r\n        string[] memory _localSerial = new string[](_index);\r\n        string[] memory _localMac = new string[](_index);\r\n        for(uint i=0; i<_index; i++){\r\n            _localBrand[i] = rack._device[i]._brand;\r\n            _localModel[i] = rack._device[i]._model;\r\n            _localSerial[i] = rack._device[i]._serial;\r\n            _localMac[i] = rack._device[i]._mac;\r\n        }\r\n        return(_localBrand,_localModel,_localSerial,_localMac, rack._device[0]._state);\r\n    }\r\n    \r\n    // Returns number of device to run for loop\r\n    function howManyReports() public view returns(uint _reports){\r\n        return reportIndex;\r\n\r\n    }\r\n    \r\n    // Returns report for system rack\r\n    function seeReport(uint _id) public view returns(uint _time, string memory _name, string memory _report){\r\n        require(_id < reportIndex, \"Not a valid report\");\r\n        return(rack._report[_id]._date, rack._report[_id]._name, rack._report[_id]._details);\r\n    }\r\n    function seeReportLoop() public view returns(uint[] memory _time, string[] memory _name, string[] memory _report){\r\n        uint _index = reportIndex;\r\n        uint[] memory _localTime = new uint[](_index);\r\n        string[] memory _localName = new string[](_index);\r\n        string[] memory _localReport = new string[](_index);\r\n        for(uint i=0; i<_index; i++){\r\n            _localTime[i] = rack._report[i]._date;\r\n            _localName[i] = rack._report[i]._name;\r\n            _localReport[i] = rack._report[i]._details;\r\n        }\r\n        return(_localTime,_localName,_localReport);\r\n    }\r\n    \r\n    receive() external payable {\r\n        require(isPayable == true, \"Do not send funds to this contract!\");\r\n    }\r\n    \r\n    fallback() external {\r\n        \r\n    }\r\n    \r\n}",
  "sourcePath": "C:\\GIT\\smartrack_contract_deployment\\contracts\\Rack.sol",
  "compiler": {
    "name": "solc",
    "version": "0.8.5+commit.a4f2e591.Emscripten.clang"
  },
  "schemaVersion": "3.4.1",
  "updatedAt": "2021-07-23T12:18:15.176Z",
  "devdoc": {
    "kind": "dev",
    "methods": {
      "owner()": {
        "details": "Returns the address of the current owner."
      },
      "renounceOwnership()": {
        "details": "Leaves the contract without owner. It will not be possible to call `onlyOwner` functions anymore. Can only be called by the current owner. NOTE: Renouncing ownership will leave the contract without an owner, thereby removing any functionality that is only available to the owner."
      },
      "transferOwnership(address)": {
        "details": "Transfers ownership of the contract to a new account (`newOwner`). Can only be called by the current owner."
      }
    },
    "version": 1
  },
  "userdoc": {
    "kind": "user",
    "methods": {},
    "version": 1
  }
}